{
	"contracts/LearnStruct.sol": {
		"LearnStruct": {
			"abi": [
				{
					"inputs": [],
					"stateMutability": "nonpayable",
					"type": "constructor"
				},
				{
					"inputs": [],
					"name": "grow",
					"outputs": [],
					"stateMutability": "nonpayable",
					"type": "function"
				},
				{
					"inputs": [],
					"name": "myPlant",
					"outputs": [
						{
							"internalType": "uint256",
							"name": "id",
							"type": "uint256"
						},
						{
							"internalType": "address",
							"name": "owner",
							"type": "address"
						},
						{
							"internalType": "enum LearnStruct.GrowthStage",
							"name": "stage",
							"type": "uint8"
						},
						{
							"internalType": "uint8",
							"name": "waterLevel",
							"type": "uint8"
						},
						{
							"internalType": "bool",
							"name": "isAlive",
							"type": "bool"
						}
					],
					"stateMutability": "view",
					"type": "function"
				},
				{
					"inputs": [],
					"name": "water",
					"outputs": [],
					"stateMutability": "nonpayable",
					"type": "function"
				}
			],
			"devdoc": {
				"kind": "dev",
				"methods": {},
				"version": 1
			},
			"evm": {
				"assembly": "    /* \"contracts/LearnStruct.sol\":58:731  contract LearnStruct {... */\n  mstore(0x40, 0x80)\n    /* \"contracts/LearnStruct.sol\":314:515  constructor() {... */\n  callvalue\n  dup1\n  iszero\n  tag_1\n  jumpi\n  revert(0x00, 0x00)\ntag_1:\n  pop\n    /* \"contracts/LearnStruct.sol\":348:508  Plant({... */\n  mload(0x40)\n  dup1\n  0xa0\n  add\n  0x40\n  mstore\n  dup1\n    /* \"contracts/LearnStruct.sol\":372:373  1 */\n  0x01\n    /* \"contracts/LearnStruct.sol\":348:508  Plant({... */\n  dup2\n  mstore\n  0x20\n  add\n    /* \"contracts/LearnStruct.sol\":394:404  msg.sender */\n  caller\n    /* \"contracts/LearnStruct.sol\":348:508  Plant({... */\n  0xffffffffffffffffffffffffffffffffffffffff\n  and\n  dup2\n  mstore\n  0x20\n  add\n    /* \"contracts/LearnStruct.sol\":425:441  GrowthStage.SEED */\n  0x00\n    /* \"contracts/LearnStruct.sol\":348:508  Plant({... */\n  0x03\n  dup2\n  gt\n  iszero\n  tag_4\n  jumpi\n  tag_5\n  tag_6\n  jump\t// in\ntag_5:\ntag_4:\n  dup2\n  mstore\n  0x20\n  add\n    /* \"contracts/LearnStruct.sol\":467:470  100 */\n  0x64\n    /* \"contracts/LearnStruct.sol\":348:508  Plant({... */\n  0xff\n  and\n  dup2\n  mstore\n  0x20\n  add\n    /* \"contracts/LearnStruct.sol\":493:497  true */\n  0x01\n    /* \"contracts/LearnStruct.sol\":348:508  Plant({... */\n  iszero\n  iszero\n  dup2\n  mstore\n  pop\n    /* \"contracts/LearnStruct.sol\":338:345  myPlant */\n  0x00\n    /* \"contracts/LearnStruct.sol\":338:508  myPlant = Plant({... */\n  0x00\n  dup3\n  add\n  mload\n  dup2\n  0x00\n  add\n  sstore\n  0x20\n  dup3\n  add\n  mload\n  dup2\n  0x01\n  add\n  exp(0x0100, 0x00)\n  dup2\n  sload\n  dup2\n  0xffffffffffffffffffffffffffffffffffffffff\n  mul\n  not\n  and\n  swap1\n  dup4\n  0xffffffffffffffffffffffffffffffffffffffff\n  and\n  mul\n  or\n  swap1\n  sstore\n  pop\n  0x40\n  dup3\n  add\n  mload\n  dup2\n  0x01\n  add\n  exp(0x0100, 0x14)\n  dup2\n  sload\n  dup2\n  0xff\n  mul\n  not\n  and\n  swap1\n  dup4\n  0x03\n  dup2\n  gt\n  iszero\n  tag_7\n  jumpi\n  tag_8\n  tag_6\n  jump\t// in\ntag_8:\ntag_7:\n  mul\n  or\n  swap1\n  sstore\n  pop\n  0x60\n  dup3\n  add\n  mload\n  dup2\n  0x01\n  add\n  exp(0x0100, 0x15)\n  dup2\n  sload\n  dup2\n  0xff\n  mul\n  not\n  and\n  swap1\n  dup4\n  0xff\n  and\n  mul\n  or\n  swap1\n  sstore\n  pop\n  0x80\n  dup3\n  add\n  mload\n  dup2\n  0x01\n  add\n  exp(0x0100, 0x16)\n  dup2\n  sload\n  dup2\n  0xff\n  mul\n  not\n  and\n  swap1\n  dup4\n  iszero\n  iszero\n  mul\n  or\n  swap1\n  sstore\n  pop\n  swap1\n  pop\n  pop\n    /* \"contracts/LearnStruct.sol\":58:731  contract LearnStruct {... */\n  jump(tag_9)\n    /* \"#utility.yul\":7:187   */\ntag_6:\n    /* \"#utility.yul\":55:132   */\n  0x4e487b7100000000000000000000000000000000000000000000000000000000\n    /* \"#utility.yul\":52:53   */\n  0x00\n    /* \"#utility.yul\":45:133   */\n  mstore\n    /* \"#utility.yul\":152:156   */\n  0x21\n    /* \"#utility.yul\":149:150   */\n  0x04\n    /* \"#utility.yul\":142:157   */\n  mstore\n    /* \"#utility.yul\":176:180   */\n  0x24\n    /* \"#utility.yul\":173:174   */\n  0x00\n    /* \"#utility.yul\":166:181   */\n  revert\n    /* \"contracts/LearnStruct.sol\":58:731  contract LearnStruct {... */\ntag_9:\n  dataSize(sub_0)\n  dup1\n  dataOffset(sub_0)\n  0x00\n  codecopy\n  0x00\n  return\nstop\n\nsub_0: assembly {\n        /* \"contracts/LearnStruct.sol\":58:731  contract LearnStruct {... */\n      mstore(0x40, 0x80)\n      callvalue\n      dup1\n      iszero\n      tag_1\n      jumpi\n      revert(0x00, 0x00)\n    tag_1:\n      pop\n      jumpi(tag_2, lt(calldatasize, 0x04))\n      shr(0xe0, calldataload(0x00))\n      dup1\n      0x3a8fdff0\n      eq\n      tag_3\n      jumpi\n      dup1\n      0x5298948e\n      eq\n      tag_4\n      jumpi\n      dup1\n      0xffce2210\n      eq\n      tag_5\n      jumpi\n    tag_2:\n      revert(0x00, 0x00)\n        /* \"contracts/LearnStruct.sol\":287:307  Plant public myPlant */\n    tag_3:\n      tag_6\n      tag_7\n      jump\t// in\n    tag_6:\n      mload(0x40)\n      tag_8\n      swap6\n      swap5\n      swap4\n      swap3\n      swap2\n      swap1\n      tag_9\n      jump\t// in\n    tag_8:\n      mload(0x40)\n      dup1\n      swap2\n      sub\n      swap1\n      return\n        /* \"contracts/LearnStruct.sol\":592:729  function grow() public {... */\n    tag_4:\n      tag_10\n      tag_11\n      jump\t// in\n    tag_10:\n      stop\n        /* \"contracts/LearnStruct.sol\":521:586  function water() public {... */\n    tag_5:\n      tag_12\n      tag_13\n      jump\t// in\n    tag_12:\n      stop\n        /* \"contracts/LearnStruct.sol\":287:307  Plant public myPlant */\n    tag_7:\n      0x00\n      dup1\n      0x00\n      add\n      sload\n      swap1\n      dup1\n      0x01\n      add\n      0x00\n      swap1\n      sload\n      swap1\n      0x0100\n      exp\n      swap1\n      div\n      0xffffffffffffffffffffffffffffffffffffffff\n      and\n      swap1\n      dup1\n      0x01\n      add\n      0x14\n      swap1\n      sload\n      swap1\n      0x0100\n      exp\n      swap1\n      div\n      0xff\n      and\n      swap1\n      dup1\n      0x01\n      add\n      0x15\n      swap1\n      sload\n      swap1\n      0x0100\n      exp\n      swap1\n      div\n      0xff\n      and\n      swap1\n      dup1\n      0x01\n      add\n      0x16\n      swap1\n      sload\n      swap1\n      0x0100\n      exp\n      swap1\n      div\n      0xff\n      and\n      swap1\n      pop\n      dup6\n      jump\t// out\n        /* \"contracts/LearnStruct.sol\":592:729  function grow() public {... */\n    tag_11:\n        /* \"contracts/LearnStruct.sol\":646:662  GrowthStage.SEED */\n      0x00\n        /* \"contracts/LearnStruct.sol\":629:662  myPlant.stage == GrowthStage.SEED */\n      0x03\n      dup2\n      gt\n      iszero\n      tag_15\n      jumpi\n      tag_16\n      tag_17\n      jump\t// in\n    tag_16:\n    tag_15:\n        /* \"contracts/LearnStruct.sol\":629:636  myPlant */\n      0x00\n        /* \"contracts/LearnStruct.sol\":629:642  myPlant.stage */\n      0x01\n      add\n      0x14\n      swap1\n      sload\n      swap1\n      0x0100\n      exp\n      swap1\n      div\n      0xff\n      and\n        /* \"contracts/LearnStruct.sol\":629:662  myPlant.stage == GrowthStage.SEED */\n      0x03\n      dup2\n      gt\n      iszero\n      tag_18\n      jumpi\n      tag_19\n      tag_17\n      jump\t// in\n    tag_19:\n    tag_18:\n      sub\n        /* \"contracts/LearnStruct.sol\":625:723  if (myPlant.stage == GrowthStage.SEED) {... */\n      tag_20\n      jumpi\n        /* \"contracts/LearnStruct.sol\":694:712  GrowthStage.SPROUT */\n      0x01\n        /* \"contracts/LearnStruct.sol\":678:685  myPlant */\n      0x00\n        /* \"contracts/LearnStruct.sol\":678:691  myPlant.stage */\n      0x01\n      add\n      0x14\n        /* \"contracts/LearnStruct.sol\":678:712  myPlant.stage = GrowthStage.SPROUT */\n      0x0100\n      exp\n      dup2\n      sload\n      dup2\n      0xff\n      mul\n      not\n      and\n      swap1\n      dup4\n      0x03\n      dup2\n      gt\n      iszero\n      tag_21\n      jumpi\n      tag_22\n      tag_17\n      jump\t// in\n    tag_22:\n    tag_21:\n      mul\n      or\n      swap1\n      sstore\n      pop\n        /* \"contracts/LearnStruct.sol\":625:723  if (myPlant.stage == GrowthStage.SEED) {... */\n    tag_20:\n        /* \"contracts/LearnStruct.sol\":592:729  function grow() public {... */\n      jump\t// out\n        /* \"contracts/LearnStruct.sol\":521:586  function water() public {... */\n    tag_13:\n        /* \"contracts/LearnStruct.sol\":576:579  100 */\n      0x64\n        /* \"contracts/LearnStruct.sol\":555:562  myPlant */\n      0x00\n        /* \"contracts/LearnStruct.sol\":555:573  myPlant.waterLevel */\n      0x01\n      add\n      0x15\n        /* \"contracts/LearnStruct.sol\":555:579  myPlant.waterLevel = 100 */\n      0x0100\n      exp\n      dup2\n      sload\n      dup2\n      0xff\n      mul\n      not\n      and\n      swap1\n      dup4\n      0xff\n      and\n      mul\n      or\n      swap1\n      sstore\n      pop\n        /* \"contracts/LearnStruct.sol\":521:586  function water() public {... */\n      jump\t// out\n        /* \"#utility.yul\":7:84   */\n    tag_24:\n        /* \"#utility.yul\":44:51   */\n      0x00\n        /* \"#utility.yul\":73:78   */\n      dup2\n        /* \"#utility.yul\":62:78   */\n      swap1\n      pop\n        /* \"#utility.yul\":7:84   */\n      swap2\n      swap1\n      pop\n      jump\t// out\n        /* \"#utility.yul\":90:208   */\n    tag_25:\n        /* \"#utility.yul\":177:201   */\n      tag_40\n        /* \"#utility.yul\":195:200   */\n      dup2\n        /* \"#utility.yul\":177:201   */\n      tag_24\n      jump\t// in\n    tag_40:\n        /* \"#utility.yul\":172:175   */\n      dup3\n        /* \"#utility.yul\":165:202   */\n      mstore\n        /* \"#utility.yul\":90:208   */\n      pop\n      pop\n      jump\t// out\n        /* \"#utility.yul\":214:340   */\n    tag_26:\n        /* \"#utility.yul\":251:258   */\n      0x00\n        /* \"#utility.yul\":291:333   */\n      0xffffffffffffffffffffffffffffffffffffffff\n        /* \"#utility.yul\":284:289   */\n      dup3\n        /* \"#utility.yul\":280:334   */\n      and\n        /* \"#utility.yul\":269:334   */\n      swap1\n      pop\n        /* \"#utility.yul\":214:340   */\n      swap2\n      swap1\n      pop\n      jump\t// out\n        /* \"#utility.yul\":346:442   */\n    tag_27:\n        /* \"#utility.yul\":383:390   */\n      0x00\n        /* \"#utility.yul\":412:436   */\n      tag_43\n        /* \"#utility.yul\":430:435   */\n      dup3\n        /* \"#utility.yul\":412:436   */\n      tag_26\n      jump\t// in\n    tag_43:\n        /* \"#utility.yul\":401:436   */\n      swap1\n      pop\n        /* \"#utility.yul\":346:442   */\n      swap2\n      swap1\n      pop\n      jump\t// out\n        /* \"#utility.yul\":448:566   */\n    tag_28:\n        /* \"#utility.yul\":535:559   */\n      tag_45\n        /* \"#utility.yul\":553:558   */\n      dup2\n        /* \"#utility.yul\":535:559   */\n      tag_27\n      jump\t// in\n    tag_45:\n        /* \"#utility.yul\":530:533   */\n      dup3\n        /* \"#utility.yul\":523:560   */\n      mstore\n        /* \"#utility.yul\":448:566   */\n      pop\n      pop\n      jump\t// out\n        /* \"#utility.yul\":572:752   */\n    tag_17:\n        /* \"#utility.yul\":620:697   */\n      0x4e487b7100000000000000000000000000000000000000000000000000000000\n        /* \"#utility.yul\":617:618   */\n      0x00\n        /* \"#utility.yul\":610:698   */\n      mstore\n        /* \"#utility.yul\":717:721   */\n      0x21\n        /* \"#utility.yul\":714:715   */\n      0x04\n        /* \"#utility.yul\":707:722   */\n      mstore\n        /* \"#utility.yul\":741:745   */\n      0x24\n        /* \"#utility.yul\":738:739   */\n      0x00\n        /* \"#utility.yul\":731:746   */\n      revert\n        /* \"#utility.yul\":758:876   */\n    tag_29:\n        /* \"#utility.yul\":844:845   */\n      0x04\n        /* \"#utility.yul\":837:842   */\n      dup2\n        /* \"#utility.yul\":834:846   */\n      lt\n        /* \"#utility.yul\":824:870   */\n      tag_48\n      jumpi\n        /* \"#utility.yul\":850:868   */\n      tag_49\n      tag_17\n      jump\t// in\n    tag_49:\n        /* \"#utility.yul\":824:870   */\n    tag_48:\n        /* \"#utility.yul\":758:876   */\n      pop\n      jump\t// out\n        /* \"#utility.yul\":882:1019   */\n    tag_30:\n        /* \"#utility.yul\":932:939   */\n      0x00\n        /* \"#utility.yul\":961:966   */\n      dup2\n        /* \"#utility.yul\":950:966   */\n      swap1\n      pop\n        /* \"#utility.yul\":967:1013   */\n      tag_51\n        /* \"#utility.yul\":1007:1012   */\n      dup3\n        /* \"#utility.yul\":967:1013   */\n      tag_29\n      jump\t// in\n    tag_51:\n        /* \"#utility.yul\":882:1019   */\n      swap2\n      swap1\n      pop\n      jump\t// out\n        /* \"#utility.yul\":1025:1162   */\n    tag_31:\n        /* \"#utility.yul\":1086:1095   */\n      0x00\n        /* \"#utility.yul\":1119:1156   */\n      tag_53\n        /* \"#utility.yul\":1150:1155   */\n      dup3\n        /* \"#utility.yul\":1119:1156   */\n      tag_30\n      jump\t// in\n    tag_53:\n        /* \"#utility.yul\":1106:1156   */\n      swap1\n      pop\n        /* \"#utility.yul\":1025:1162   */\n      swap2\n      swap1\n      pop\n      jump\t// out\n        /* \"#utility.yul\":1168:1321   */\n    tag_32:\n        /* \"#utility.yul\":1266:1314   */\n      tag_55\n        /* \"#utility.yul\":1308:1313   */\n      dup2\n        /* \"#utility.yul\":1266:1314   */\n      tag_31\n      jump\t// in\n    tag_55:\n        /* \"#utility.yul\":1261:1264   */\n      dup3\n        /* \"#utility.yul\":1254:1315   */\n      mstore\n        /* \"#utility.yul\":1168:1321   */\n      pop\n      pop\n      jump\t// out\n        /* \"#utility.yul\":1327:1413   */\n    tag_33:\n        /* \"#utility.yul\":1362:1369   */\n      0x00\n        /* \"#utility.yul\":1402:1406   */\n      0xff\n        /* \"#utility.yul\":1395:1400   */\n      dup3\n        /* \"#utility.yul\":1391:1407   */\n      and\n        /* \"#utility.yul\":1380:1407   */\n      swap1\n      pop\n        /* \"#utility.yul\":1327:1413   */\n      swap2\n      swap1\n      pop\n      jump\t// out\n        /* \"#utility.yul\":1419:1531   */\n    tag_34:\n        /* \"#utility.yul\":1502:1524   */\n      tag_58\n        /* \"#utility.yul\":1518:1523   */\n      dup2\n        /* \"#utility.yul\":1502:1524   */\n      tag_33\n      jump\t// in\n    tag_58:\n        /* \"#utility.yul\":1497:1500   */\n      dup3\n        /* \"#utility.yul\":1490:1525   */\n      mstore\n        /* \"#utility.yul\":1419:1531   */\n      pop\n      pop\n      jump\t// out\n        /* \"#utility.yul\":1537:1627   */\n    tag_35:\n        /* \"#utility.yul\":1571:1578   */\n      0x00\n        /* \"#utility.yul\":1614:1619   */\n      dup2\n        /* \"#utility.yul\":1607:1620   */\n      iszero\n        /* \"#utility.yul\":1600:1621   */\n      iszero\n        /* \"#utility.yul\":1589:1621   */\n      swap1\n      pop\n        /* \"#utility.yul\":1537:1627   */\n      swap2\n      swap1\n      pop\n      jump\t// out\n        /* \"#utility.yul\":1633:1742   */\n    tag_36:\n        /* \"#utility.yul\":1714:1735   */\n      tag_61\n        /* \"#utility.yul\":1729:1734   */\n      dup2\n        /* \"#utility.yul\":1714:1735   */\n      tag_35\n      jump\t// in\n    tag_61:\n        /* \"#utility.yul\":1709:1712   */\n      dup3\n        /* \"#utility.yul\":1702:1736   */\n      mstore\n        /* \"#utility.yul\":1633:1742   */\n      pop\n      pop\n      jump\t// out\n        /* \"#utility.yul\":1748:2414   */\n    tag_9:\n        /* \"#utility.yul\":1954:1958   */\n      0x00\n        /* \"#utility.yul\":1992:1995   */\n      0xa0\n        /* \"#utility.yul\":1981:1990   */\n      dup3\n        /* \"#utility.yul\":1977:1996   */\n      add\n        /* \"#utility.yul\":1969:1996   */\n      swap1\n      pop\n        /* \"#utility.yul\":2006:2077   */\n      tag_63\n        /* \"#utility.yul\":2074:2075   */\n      0x00\n        /* \"#utility.yul\":2063:2072   */\n      dup4\n        /* \"#utility.yul\":2059:2076   */\n      add\n        /* \"#utility.yul\":2050:2056   */\n      dup9\n        /* \"#utility.yul\":2006:2077   */\n      tag_25\n      jump\t// in\n    tag_63:\n        /* \"#utility.yul\":2087:2159   */\n      tag_64\n        /* \"#utility.yul\":2155:2157   */\n      0x20\n        /* \"#utility.yul\":2144:2153   */\n      dup4\n        /* \"#utility.yul\":2140:2158   */\n      add\n        /* \"#utility.yul\":2131:2137   */\n      dup8\n        /* \"#utility.yul\":2087:2159   */\n      tag_28\n      jump\t// in\n    tag_64:\n        /* \"#utility.yul\":2169:2252   */\n      tag_65\n        /* \"#utility.yul\":2248:2250   */\n      0x40\n        /* \"#utility.yul\":2237:2246   */\n      dup4\n        /* \"#utility.yul\":2233:2251   */\n      add\n        /* \"#utility.yul\":2224:2230   */\n      dup7\n        /* \"#utility.yul\":2169:2252   */\n      tag_32\n      jump\t// in\n    tag_65:\n        /* \"#utility.yul\":2262:2330   */\n      tag_66\n        /* \"#utility.yul\":2326:2328   */\n      0x60\n        /* \"#utility.yul\":2315:2324   */\n      dup4\n        /* \"#utility.yul\":2311:2329   */\n      add\n        /* \"#utility.yul\":2302:2308   */\n      dup6\n        /* \"#utility.yul\":2262:2330   */\n      tag_34\n      jump\t// in\n    tag_66:\n        /* \"#utility.yul\":2340:2407   */\n      tag_67\n        /* \"#utility.yul\":2402:2405   */\n      0x80\n        /* \"#utility.yul\":2391:2400   */\n      dup4\n        /* \"#utility.yul\":2387:2406   */\n      add\n        /* \"#utility.yul\":2378:2384   */\n      dup5\n        /* \"#utility.yul\":2340:2407   */\n      tag_36\n      jump\t// in\n    tag_67:\n        /* \"#utility.yul\":1748:2414   */\n      swap7\n      swap6\n      pop\n      pop\n      pop\n      pop\n      pop\n      pop\n      jump\t// out\n\n    auxdata: 0xa264697066735822122088c3ee27e8e1addf0ad9e6683c4543694aacbd022946ac311ac7201a98da075964736f6c634300081e0033\n}\n",
				"bytecode": {
					"linkReferences": {},
					"object": "608060405234801561000f575f5ffd5b506040518060a00160405280600181526020013373ffffffffffffffffffffffffffffffffffffffff1681526020015f60038111156100515761005061012f565b5b8152602001606460ff168152602001600115158152505f5f820151815f01556020820151816001015f6101000a81548173ffffffffffffffffffffffffffffffffffffffff021916908373ffffffffffffffffffffffffffffffffffffffff16021790555060408201518160010160146101000a81548160ff021916908360038111156100e1576100e061012f565b5b021790555060608201518160010160156101000a81548160ff021916908360ff16021790555060808201518160010160166101000a81548160ff02191690831515021790555090505061015c565b7f4e487b71000000000000000000000000000000000000000000000000000000005f52602160045260245ffd5b6102f3806101695f395ff3fe608060405234801561000f575f5ffd5b506004361061003f575f3560e01c80633a8fdff0146100435780635298948e14610065578063ffce22101461006f575b5f5ffd5b61004b610079565b60405161005c95949392919061026c565b60405180910390f35b61006d6100e1565b005b61007761014d565b005b5f805f015490806001015f9054906101000a900473ffffffffffffffffffffffffffffffffffffffff16908060010160149054906101000a900460ff16908060010160159054906101000a900460ff16908060010160169054906101000a900460ff16905085565b5f60038111156100f4576100f36101c4565b5b5f60010160149054906101000a900460ff166003811115610118576101176101c4565b5b0361014b5760015f60010160146101000a81548160ff02191690836003811115610145576101446101c4565b5b02179055505b565b60645f60010160156101000a81548160ff021916908360ff160217905550565b5f819050919050565b61017f8161016d565b82525050565b5f73ffffffffffffffffffffffffffffffffffffffff82169050919050565b5f6101ae82610185565b9050919050565b6101be816101a4565b82525050565b7f4e487b71000000000000000000000000000000000000000000000000000000005f52602160045260245ffd5b60048110610202576102016101c4565b5b50565b5f819050610212826101f1565b919050565b5f61022182610205565b9050919050565b61023181610217565b82525050565b5f60ff82169050919050565b61024c81610237565b82525050565b5f8115159050919050565b61026681610252565b82525050565b5f60a08201905061027f5f830188610176565b61028c60208301876101b5565b6102996040830186610228565b6102a66060830185610243565b6102b3608083018461025d565b969550505050505056fea264697066735822122088c3ee27e8e1addf0ad9e6683c4543694aacbd022946ac311ac7201a98da075964736f6c634300081e0033",
					"opcodes": "PUSH1 0x80 PUSH1 0x40 MSTORE CALLVALUE DUP1 ISZERO PUSH2 0xF JUMPI PUSH0 PUSH0 REVERT JUMPDEST POP PUSH1 0x40 MLOAD DUP1 PUSH1 0xA0 ADD PUSH1 0x40 MSTORE DUP1 PUSH1 0x1 DUP2 MSTORE PUSH1 0x20 ADD CALLER PUSH20 0xFFFFFFFFFFFFFFFFFFFFFFFFFFFFFFFFFFFFFFFF AND DUP2 MSTORE PUSH1 0x20 ADD PUSH0 PUSH1 0x3 DUP2 GT ISZERO PUSH2 0x51 JUMPI PUSH2 0x50 PUSH2 0x12F JUMP JUMPDEST JUMPDEST DUP2 MSTORE PUSH1 0x20 ADD PUSH1 0x64 PUSH1 0xFF AND DUP2 MSTORE PUSH1 0x20 ADD PUSH1 0x1 ISZERO ISZERO DUP2 MSTORE POP PUSH0 PUSH0 DUP3 ADD MLOAD DUP2 PUSH0 ADD SSTORE PUSH1 0x20 DUP3 ADD MLOAD DUP2 PUSH1 0x1 ADD PUSH0 PUSH2 0x100 EXP DUP2 SLOAD DUP2 PUSH20 0xFFFFFFFFFFFFFFFFFFFFFFFFFFFFFFFFFFFFFFFF MUL NOT AND SWAP1 DUP4 PUSH20 0xFFFFFFFFFFFFFFFFFFFFFFFFFFFFFFFFFFFFFFFF AND MUL OR SWAP1 SSTORE POP PUSH1 0x40 DUP3 ADD MLOAD DUP2 PUSH1 0x1 ADD PUSH1 0x14 PUSH2 0x100 EXP DUP2 SLOAD DUP2 PUSH1 0xFF MUL NOT AND SWAP1 DUP4 PUSH1 0x3 DUP2 GT ISZERO PUSH2 0xE1 JUMPI PUSH2 0xE0 PUSH2 0x12F JUMP JUMPDEST JUMPDEST MUL OR SWAP1 SSTORE POP PUSH1 0x60 DUP3 ADD MLOAD DUP2 PUSH1 0x1 ADD PUSH1 0x15 PUSH2 0x100 EXP DUP2 SLOAD DUP2 PUSH1 0xFF MUL NOT AND SWAP1 DUP4 PUSH1 0xFF AND MUL OR SWAP1 SSTORE POP PUSH1 0x80 DUP3 ADD MLOAD DUP2 PUSH1 0x1 ADD PUSH1 0x16 PUSH2 0x100 EXP DUP2 SLOAD DUP2 PUSH1 0xFF MUL NOT AND SWAP1 DUP4 ISZERO ISZERO MUL OR SWAP1 SSTORE POP SWAP1 POP POP PUSH2 0x15C JUMP JUMPDEST PUSH32 0x4E487B7100000000000000000000000000000000000000000000000000000000 PUSH0 MSTORE PUSH1 0x21 PUSH1 0x4 MSTORE PUSH1 0x24 PUSH0 REVERT JUMPDEST PUSH2 0x2F3 DUP1 PUSH2 0x169 PUSH0 CODECOPY PUSH0 RETURN INVALID PUSH1 0x80 PUSH1 0x40 MSTORE CALLVALUE DUP1 ISZERO PUSH2 0xF JUMPI PUSH0 PUSH0 REVERT JUMPDEST POP PUSH1 0x4 CALLDATASIZE LT PUSH2 0x3F JUMPI PUSH0 CALLDATALOAD PUSH1 0xE0 SHR DUP1 PUSH4 0x3A8FDFF0 EQ PUSH2 0x43 JUMPI DUP1 PUSH4 0x5298948E EQ PUSH2 0x65 JUMPI DUP1 PUSH4 0xFFCE2210 EQ PUSH2 0x6F JUMPI JUMPDEST PUSH0 PUSH0 REVERT JUMPDEST PUSH2 0x4B PUSH2 0x79 JUMP JUMPDEST PUSH1 0x40 MLOAD PUSH2 0x5C SWAP6 SWAP5 SWAP4 SWAP3 SWAP2 SWAP1 PUSH2 0x26C JUMP JUMPDEST PUSH1 0x40 MLOAD DUP1 SWAP2 SUB SWAP1 RETURN JUMPDEST PUSH2 0x6D PUSH2 0xE1 JUMP JUMPDEST STOP JUMPDEST PUSH2 0x77 PUSH2 0x14D JUMP JUMPDEST STOP JUMPDEST PUSH0 DUP1 PUSH0 ADD SLOAD SWAP1 DUP1 PUSH1 0x1 ADD PUSH0 SWAP1 SLOAD SWAP1 PUSH2 0x100 EXP SWAP1 DIV PUSH20 0xFFFFFFFFFFFFFFFFFFFFFFFFFFFFFFFFFFFFFFFF AND SWAP1 DUP1 PUSH1 0x1 ADD PUSH1 0x14 SWAP1 SLOAD SWAP1 PUSH2 0x100 EXP SWAP1 DIV PUSH1 0xFF AND SWAP1 DUP1 PUSH1 0x1 ADD PUSH1 0x15 SWAP1 SLOAD SWAP1 PUSH2 0x100 EXP SWAP1 DIV PUSH1 0xFF AND SWAP1 DUP1 PUSH1 0x1 ADD PUSH1 0x16 SWAP1 SLOAD SWAP1 PUSH2 0x100 EXP SWAP1 DIV PUSH1 0xFF AND SWAP1 POP DUP6 JUMP JUMPDEST PUSH0 PUSH1 0x3 DUP2 GT ISZERO PUSH2 0xF4 JUMPI PUSH2 0xF3 PUSH2 0x1C4 JUMP JUMPDEST JUMPDEST PUSH0 PUSH1 0x1 ADD PUSH1 0x14 SWAP1 SLOAD SWAP1 PUSH2 0x100 EXP SWAP1 DIV PUSH1 0xFF AND PUSH1 0x3 DUP2 GT ISZERO PUSH2 0x118 JUMPI PUSH2 0x117 PUSH2 0x1C4 JUMP JUMPDEST JUMPDEST SUB PUSH2 0x14B JUMPI PUSH1 0x1 PUSH0 PUSH1 0x1 ADD PUSH1 0x14 PUSH2 0x100 EXP DUP2 SLOAD DUP2 PUSH1 0xFF MUL NOT AND SWAP1 DUP4 PUSH1 0x3 DUP2 GT ISZERO PUSH2 0x145 JUMPI PUSH2 0x144 PUSH2 0x1C4 JUMP JUMPDEST JUMPDEST MUL OR SWAP1 SSTORE POP JUMPDEST JUMP JUMPDEST PUSH1 0x64 PUSH0 PUSH1 0x1 ADD PUSH1 0x15 PUSH2 0x100 EXP DUP2 SLOAD DUP2 PUSH1 0xFF MUL NOT AND SWAP1 DUP4 PUSH1 0xFF AND MUL OR SWAP1 SSTORE POP JUMP JUMPDEST PUSH0 DUP2 SWAP1 POP SWAP2 SWAP1 POP JUMP JUMPDEST PUSH2 0x17F DUP2 PUSH2 0x16D JUMP JUMPDEST DUP3 MSTORE POP POP JUMP JUMPDEST PUSH0 PUSH20 0xFFFFFFFFFFFFFFFFFFFFFFFFFFFFFFFFFFFFFFFF DUP3 AND SWAP1 POP SWAP2 SWAP1 POP JUMP JUMPDEST PUSH0 PUSH2 0x1AE DUP3 PUSH2 0x185 JUMP JUMPDEST SWAP1 POP SWAP2 SWAP1 POP JUMP JUMPDEST PUSH2 0x1BE DUP2 PUSH2 0x1A4 JUMP JUMPDEST DUP3 MSTORE POP POP JUMP JUMPDEST PUSH32 0x4E487B7100000000000000000000000000000000000000000000000000000000 PUSH0 MSTORE PUSH1 0x21 PUSH1 0x4 MSTORE PUSH1 0x24 PUSH0 REVERT JUMPDEST PUSH1 0x4 DUP2 LT PUSH2 0x202 JUMPI PUSH2 0x201 PUSH2 0x1C4 JUMP JUMPDEST JUMPDEST POP JUMP JUMPDEST PUSH0 DUP2 SWAP1 POP PUSH2 0x212 DUP3 PUSH2 0x1F1 JUMP JUMPDEST SWAP2 SWAP1 POP JUMP JUMPDEST PUSH0 PUSH2 0x221 DUP3 PUSH2 0x205 JUMP JUMPDEST SWAP1 POP SWAP2 SWAP1 POP JUMP JUMPDEST PUSH2 0x231 DUP2 PUSH2 0x217 JUMP JUMPDEST DUP3 MSTORE POP POP JUMP JUMPDEST PUSH0 PUSH1 0xFF DUP3 AND SWAP1 POP SWAP2 SWAP1 POP JUMP JUMPDEST PUSH2 0x24C DUP2 PUSH2 0x237 JUMP JUMPDEST DUP3 MSTORE POP POP JUMP JUMPDEST PUSH0 DUP2 ISZERO ISZERO SWAP1 POP SWAP2 SWAP1 POP JUMP JUMPDEST PUSH2 0x266 DUP2 PUSH2 0x252 JUMP JUMPDEST DUP3 MSTORE POP POP JUMP JUMPDEST PUSH0 PUSH1 0xA0 DUP3 ADD SWAP1 POP PUSH2 0x27F PUSH0 DUP4 ADD DUP9 PUSH2 0x176 JUMP JUMPDEST PUSH2 0x28C PUSH1 0x20 DUP4 ADD DUP8 PUSH2 0x1B5 JUMP JUMPDEST PUSH2 0x299 PUSH1 0x40 DUP4 ADD DUP7 PUSH2 0x228 JUMP JUMPDEST PUSH2 0x2A6 PUSH1 0x60 DUP4 ADD DUP6 PUSH2 0x243 JUMP JUMPDEST PUSH2 0x2B3 PUSH1 0x80 DUP4 ADD DUP5 PUSH2 0x25D JUMP JUMPDEST SWAP7 SWAP6 POP POP POP POP POP POP JUMP INVALID LOG2 PUSH5 0x6970667358 0x22 SLT KECCAK256 DUP9 0xC3 RETURNCONTRACT 0x27 0xE8 RJUMPI 0xADDF EXP 0xD9 DUPN 0x68 EXTCODECOPY GASLIMIT NUMBER PUSH10 0x4AACBD022946AC311AC7 KECCAK256 BYTE SWAP9 0xDA SMOD MSIZE PUSH5 0x736F6C6343 STOP ADDMOD 0x1E STOP CALLER "
				},
				"gasEstimates": {
					"creation": {
						"codeDepositCost": "151000",
						"executionCost": "119768",
						"totalCost": "270768"
					},
					"external": {
						"grow()": "26750",
						"myPlant()": "11706",
						"water()": "24487"
					}
				},
				"methodIdentifiers": {
					"grow()": "5298948e",
					"myPlant()": "3a8fdff0",
					"water()": "ffce2210"
				}
			},
			"storageLayout": {
				"storage": [
					{
						"astId": 21,
						"contract": "contracts/LearnStruct.sol:LearnStruct",
						"label": "myPlant",
						"offset": 0,
						"slot": "0",
						"type": "t_struct(Plant)18_storage"
					}
				],
				"types": {
					"t_address": {
						"encoding": "inplace",
						"label": "address",
						"numberOfBytes": "20"
					},
					"t_bool": {
						"encoding": "inplace",
						"label": "bool",
						"numberOfBytes": "1"
					},
					"t_enum(GrowthStage)6": {
						"encoding": "inplace",
						"label": "enum LearnStruct.GrowthStage",
						"numberOfBytes": "1"
					},
					"t_struct(Plant)18_storage": {
						"encoding": "inplace",
						"label": "struct LearnStruct.Plant",
						"members": [
							{
								"astId": 8,
								"contract": "contracts/LearnStruct.sol:LearnStruct",
								"label": "id",
								"offset": 0,
								"slot": "0",
								"type": "t_uint256"
							},
							{
								"astId": 10,
								"contract": "contracts/LearnStruct.sol:LearnStruct",
								"label": "owner",
								"offset": 0,
								"slot": "1",
								"type": "t_address"
							},
							{
								"astId": 13,
								"contract": "contracts/LearnStruct.sol:LearnStruct",
								"label": "stage",
								"offset": 20,
								"slot": "1",
								"type": "t_enum(GrowthStage)6"
							},
							{
								"astId": 15,
								"contract": "contracts/LearnStruct.sol:LearnStruct",
								"label": "waterLevel",
								"offset": 21,
								"slot": "1",
								"type": "t_uint8"
							},
							{
								"astId": 17,
								"contract": "contracts/LearnStruct.sol:LearnStruct",
								"label": "isAlive",
								"offset": 22,
								"slot": "1",
								"type": "t_bool"
							}
						],
						"numberOfBytes": "64"
					},
					"t_uint256": {
						"encoding": "inplace",
						"label": "uint256",
						"numberOfBytes": "32"
					},
					"t_uint8": {
						"encoding": "inplace",
						"label": "uint8",
						"numberOfBytes": "1"
					}
				}
			},
			"userdoc": {
				"kind": "user",
				"methods": {},
				"version": 1
			}
		}
	}
}