{
	"data": {
		"bytecode": {
			"linkReferences": {},
			"object": "6080604052348015600e575f5ffd5b503360015f6101000a81548173ffffffffffffffffffffffffffffffffffffffff021916908373ffffffffffffffffffffffffffffffffffffffff1602179055505f5f81905550610356806100625f395ff3fe608060405234801561000f575f5ffd5b5060043610610055575f3560e01c80632578bb2b1461005957806338cba41c1461007a57806385cc8bfb146100845780638da5cb5b146100b45780639c471749146100d2575b5f5ffd5b6100616100f0565b60405161007194939291906101bf565b60405180910390f35b610082610106565b005b61009e60048036038101906100999190610230565b610120565b6040516100ab919061025b565b60405180910390f35b6100bc61013e565b6040516100c99190610274565b60405180910390f35b6100da610163565b6040516100e7919061025b565b60405180910390f35b5f5f5f5f33935042925043915030905090919293565b5f60015f5461011591906102ba565b9050805f8190555050565b5f5f4290505f838261013291906102ed565b90508092505050919050565b60015f9054906101000a900473ffffffffffffffffffffffffffffffffffffffff1681565b5f5481565b5f73ffffffffffffffffffffffffffffffffffffffff82169050919050565b5f61019182610168565b9050919050565b6101a181610187565b82525050565b5f819050919050565b6101b9816101a7565b82525050565b5f6080820190506101d25f830187610198565b6101df60208301866101b0565b6101ec60408301856101b0565b6101f96060830184610198565b95945050505050565b5f5ffd5b61020f816101a7565b8114610219575f5ffd5b50565b5f8135905061022a81610206565b92915050565b5f6020828403121561024557610244610202565b5b5f6102528482850161021c565b91505092915050565b5f60208201905061026e5f8301846101b0565b92915050565b5f6020820190506102875f830184610198565b92915050565b7f4e487b71000000000000000000000000000000000000000000000000000000005f52601160045260245ffd5b5f6102c4826101a7565b91506102cf836101a7565b92508282019050808211156102e7576102e661028d565b5b92915050565b5f6102f7826101a7565b9150610302836101a7565b925082820390508181111561031a5761031961028d565b5b9291505056fea26469706673582212200f96ca7b2dc47ddf79c21964e902b72e3861079b5251b617763dcd68cc79a7c064736f6c634300081e0033",
			"opcodes": "PUSH1 0x80 PUSH1 0x40 MSTORE CALLVALUE DUP1 ISZERO PUSH1 0xE JUMPI PUSH0 PUSH0 REVERT JUMPDEST POP CALLER PUSH1 0x1 PUSH0 PUSH2 0x100 EXP DUP2 SLOAD DUP2 PUSH20 0xFFFFFFFFFFFFFFFFFFFFFFFFFFFFFFFFFFFFFFFF MUL NOT AND SWAP1 DUP4 PUSH20 0xFFFFFFFFFFFFFFFFFFFFFFFFFFFFFFFFFFFFFFFF AND MUL OR SWAP1 SSTORE POP PUSH0 PUSH0 DUP2 SWAP1 SSTORE POP PUSH2 0x356 DUP1 PUSH2 0x62 PUSH0 CODECOPY PUSH0 RETURN INVALID PUSH1 0x80 PUSH1 0x40 MSTORE CALLVALUE DUP1 ISZERO PUSH2 0xF JUMPI PUSH0 PUSH0 REVERT JUMPDEST POP PUSH1 0x4 CALLDATASIZE LT PUSH2 0x55 JUMPI PUSH0 CALLDATALOAD PUSH1 0xE0 SHR DUP1 PUSH4 0x2578BB2B EQ PUSH2 0x59 JUMPI DUP1 PUSH4 0x38CBA41C EQ PUSH2 0x7A JUMPI DUP1 PUSH4 0x85CC8BFB EQ PUSH2 0x84 JUMPI DUP1 PUSH4 0x8DA5CB5B EQ PUSH2 0xB4 JUMPI DUP1 PUSH4 0x9C471749 EQ PUSH2 0xD2 JUMPI JUMPDEST PUSH0 PUSH0 REVERT JUMPDEST PUSH2 0x61 PUSH2 0xF0 JUMP JUMPDEST PUSH1 0x40 MLOAD PUSH2 0x71 SWAP5 SWAP4 SWAP3 SWAP2 SWAP1 PUSH2 0x1BF JUMP JUMPDEST PUSH1 0x40 MLOAD DUP1 SWAP2 SUB SWAP1 RETURN JUMPDEST PUSH2 0x82 PUSH2 0x106 JUMP JUMPDEST STOP JUMPDEST PUSH2 0x9E PUSH1 0x4 DUP1 CALLDATASIZE SUB DUP2 ADD SWAP1 PUSH2 0x99 SWAP2 SWAP1 PUSH2 0x230 JUMP JUMPDEST PUSH2 0x120 JUMP JUMPDEST PUSH1 0x40 MLOAD PUSH2 0xAB SWAP2 SWAP1 PUSH2 0x25B JUMP JUMPDEST PUSH1 0x40 MLOAD DUP1 SWAP2 SUB SWAP1 RETURN JUMPDEST PUSH2 0xBC PUSH2 0x13E JUMP JUMPDEST PUSH1 0x40 MLOAD PUSH2 0xC9 SWAP2 SWAP1 PUSH2 0x274 JUMP JUMPDEST PUSH1 0x40 MLOAD DUP1 SWAP2 SUB SWAP1 RETURN JUMPDEST PUSH2 0xDA PUSH2 0x163 JUMP JUMPDEST PUSH1 0x40 MLOAD PUSH2 0xE7 SWAP2 SWAP1 PUSH2 0x25B JUMP JUMPDEST PUSH1 0x40 MLOAD DUP1 SWAP2 SUB SWAP1 RETURN JUMPDEST PUSH0 PUSH0 PUSH0 PUSH0 CALLER SWAP4 POP TIMESTAMP SWAP3 POP NUMBER SWAP2 POP ADDRESS SWAP1 POP SWAP1 SWAP2 SWAP3 SWAP4 JUMP JUMPDEST PUSH0 PUSH1 0x1 PUSH0 SLOAD PUSH2 0x115 SWAP2 SWAP1 PUSH2 0x2BA JUMP JUMPDEST SWAP1 POP DUP1 PUSH0 DUP2 SWAP1 SSTORE POP POP JUMP JUMPDEST PUSH0 PUSH0 TIMESTAMP SWAP1 POP PUSH0 DUP4 DUP3 PUSH2 0x132 SWAP2 SWAP1 PUSH2 0x2ED JUMP JUMPDEST SWAP1 POP DUP1 SWAP3 POP POP POP SWAP2 SWAP1 POP JUMP JUMPDEST PUSH1 0x1 PUSH0 SWAP1 SLOAD SWAP1 PUSH2 0x100 EXP SWAP1 DIV PUSH20 0xFFFFFFFFFFFFFFFFFFFFFFFFFFFFFFFFFFFFFFFF AND DUP2 JUMP JUMPDEST PUSH0 SLOAD DUP2 JUMP JUMPDEST PUSH0 PUSH20 0xFFFFFFFFFFFFFFFFFFFFFFFFFFFFFFFFFFFFFFFF DUP3 AND SWAP1 POP SWAP2 SWAP1 POP JUMP JUMPDEST PUSH0 PUSH2 0x191 DUP3 PUSH2 0x168 JUMP JUMPDEST SWAP1 POP SWAP2 SWAP1 POP JUMP JUMPDEST PUSH2 0x1A1 DUP2 PUSH2 0x187 JUMP JUMPDEST DUP3 MSTORE POP POP JUMP JUMPDEST PUSH0 DUP2 SWAP1 POP SWAP2 SWAP1 POP JUMP JUMPDEST PUSH2 0x1B9 DUP2 PUSH2 0x1A7 JUMP JUMPDEST DUP3 MSTORE POP POP JUMP JUMPDEST PUSH0 PUSH1 0x80 DUP3 ADD SWAP1 POP PUSH2 0x1D2 PUSH0 DUP4 ADD DUP8 PUSH2 0x198 JUMP JUMPDEST PUSH2 0x1DF PUSH1 0x20 DUP4 ADD DUP7 PUSH2 0x1B0 JUMP JUMPDEST PUSH2 0x1EC PUSH1 0x40 DUP4 ADD DUP6 PUSH2 0x1B0 JUMP JUMPDEST PUSH2 0x1F9 PUSH1 0x60 DUP4 ADD DUP5 PUSH2 0x198 JUMP JUMPDEST SWAP6 SWAP5 POP POP POP POP POP JUMP JUMPDEST PUSH0 PUSH0 REVERT JUMPDEST PUSH2 0x20F DUP2 PUSH2 0x1A7 JUMP JUMPDEST DUP2 EQ PUSH2 0x219 JUMPI PUSH0 PUSH0 REVERT JUMPDEST POP JUMP JUMPDEST PUSH0 DUP2 CALLDATALOAD SWAP1 POP PUSH2 0x22A DUP2 PUSH2 0x206 JUMP JUMPDEST SWAP3 SWAP2 POP POP JUMP JUMPDEST PUSH0 PUSH1 0x20 DUP3 DUP5 SUB SLT ISZERO PUSH2 0x245 JUMPI PUSH2 0x244 PUSH2 0x202 JUMP JUMPDEST JUMPDEST PUSH0 PUSH2 0x252 DUP5 DUP3 DUP6 ADD PUSH2 0x21C JUMP JUMPDEST SWAP2 POP POP SWAP3 SWAP2 POP POP JUMP JUMPDEST PUSH0 PUSH1 0x20 DUP3 ADD SWAP1 POP PUSH2 0x26E PUSH0 DUP4 ADD DUP5 PUSH2 0x1B0 JUMP JUMPDEST SWAP3 SWAP2 POP POP JUMP JUMPDEST PUSH0 PUSH1 0x20 DUP3 ADD SWAP1 POP PUSH2 0x287 PUSH0 DUP4 ADD DUP5 PUSH2 0x198 JUMP JUMPDEST SWAP3 SWAP2 POP POP JUMP JUMPDEST PUSH32 0x4E487B7100000000000000000000000000000000000000000000000000000000 PUSH0 MSTORE PUSH1 0x11 PUSH1 0x4 MSTORE PUSH1 0x24 PUSH0 REVERT JUMPDEST PUSH0 PUSH2 0x2C4 DUP3 PUSH2 0x1A7 JUMP JUMPDEST SWAP2 POP PUSH2 0x2CF DUP4 PUSH2 0x1A7 JUMP JUMPDEST SWAP3 POP DUP3 DUP3 ADD SWAP1 POP DUP1 DUP3 GT ISZERO PUSH2 0x2E7 JUMPI PUSH2 0x2E6 PUSH2 0x28D JUMP JUMPDEST JUMPDEST SWAP3 SWAP2 POP POP JUMP JUMPDEST PUSH0 PUSH2 0x2F7 DUP3 PUSH2 0x1A7 JUMP JUMPDEST SWAP2 POP PUSH2 0x302 DUP4 PUSH2 0x1A7 JUMP JUMPDEST SWAP3 POP DUP3 DUP3 SUB SWAP1 POP DUP2 DUP2 GT ISZERO PUSH2 0x31A JUMPI PUSH2 0x319 PUSH2 0x28D JUMP JUMPDEST JUMPDEST SWAP3 SWAP2 POP POP JUMP INVALID LOG2 PUSH5 0x6970667358 0x22 SLT KECCAK256 0xF SWAP7 0xCA PUSH28 0x2DC47DDF79C21964E902B72E3861079B5251B617763DCD68CC79A7C0 PUSH5 0x736F6C6343 STOP ADDMOD 0x1E STOP CALLER "
		},
		"gasEstimates": {
			"creation": {
				"codeDepositCost": "170800",
				"executionCost": "29489",
				"totalCost": "200289"
			},
			"external": {
				"addPlant()": "infinite",
				"calculateAge(uint256)": "infinite",
				"getGlobalVariables()": "infinite",
				"owner()": "2552",
				"plantCounter()": "2490"
			}
		},
		"methodIdentifiers": {
			"addPlant()": "38cba41c",
			"calculateAge(uint256)": "85cc8bfb",
			"getGlobalVariables()": "2578bb2b",
			"owner()": "8da5cb5b",
			"plantCounter()": "9c471749"
		}
	},
	"abi": [
		{
			"inputs": [],
			"stateMutability": "nonpayable",
			"type": "constructor"
		},
		{
			"inputs": [],
			"name": "addPlant",
			"outputs": [],
			"stateMutability": "nonpayable",
			"type": "function"
		},
		{
			"inputs": [
				{
					"internalType": "uint256",
					"name": "_plantedTime",
					"type": "uint256"
				}
			],
			"name": "calculateAge",
			"outputs": [
				{
					"internalType": "uint256",
					"name": "",
					"type": "uint256"
				}
			],
			"stateMutability": "view",
			"type": "function"
		},
		{
			"inputs": [],
			"name": "getGlobalVariables",
			"outputs": [
				{
					"internalType": "address",
					"name": "sender",
					"type": "address"
				},
				{
					"internalType": "uint256",
					"name": "timestamp",
					"type": "uint256"
				},
				{
					"internalType": "uint256",
					"name": "blockNumber",
					"type": "uint256"
				},
				{
					"internalType": "address",
					"name": "contractAddress",
					"type": "address"
				}
			],
			"stateMutability": "view",
			"type": "function"
		},
		{
			"inputs": [],
			"name": "owner",
			"outputs": [
				{
					"internalType": "address",
					"name": "",
					"type": "address"
				}
			],
			"stateMutability": "view",
			"type": "function"
		},
		{
			"inputs": [],
			"name": "plantCounter",
			"outputs": [
				{
					"internalType": "uint256",
					"name": "",
					"type": "uint256"
				}
			],
			"stateMutability": "view",
			"type": "function"
		}
	]
}